{
  "_format": "hh-sol-artifact-1",
  "contractName": "SupplyChain",
  "sourceName": "contracts/Supplychain.sol",
  "abi": [
    {
      "anonymous": false,
      "inputs": [
        {
          "indexed": false,
          "internalType": "uint256",
          "name": "projectId",
          "type": "uint256"
        },
        {
          "indexed": false,
          "internalType": "string",
          "name": "projectName",
          "type": "string"
        },
        {
          "indexed": false,
          "internalType": "string",
          "name": "projectDescription",
          "type": "string"
        },
        {
          "indexed": false,
          "internalType": "string",
          "name": "areaOfProject",
          "type": "string"
        },
        {
          "indexed": false,
          "internalType": "uint256",
          "name": "deadline",
          "type": "uint256"
        },
        {
          "indexed": false,
          "internalType": "uint256",
          "name": "budgetAllocation",
          "type": "uint256"
        },
        {
          "indexed": false,
          "internalType": "string",
          "name": "resourcesRequired",
          "type": "string"
        },
        {
          "indexed": false,
          "internalType": "string",
          "name": "complianceAndResource",
          "type": "string"
        },
        {
          "indexed": false,
          "internalType": "bool",
          "name": "consent",
          "type": "bool"
        }
      ],
      "name": "ProjectAdded",
      "type": "event"
    },
    {
      "anonymous": false,
      "inputs": [
        {
          "indexed": false,
          "internalType": "uint256",
          "name": "userId",
          "type": "uint256"
        },
        {
          "indexed": false,
          "internalType": "string",
          "name": "username",
          "type": "string"
        },
        {
          "indexed": false,
          "internalType": "string",
          "name": "department",
          "type": "string"
        },
        {
          "indexed": false,
          "internalType": "string",
          "name": "role",
          "type": "string"
        },
        {
          "indexed": false,
          "internalType": "string",
          "name": "location",
          "type": "string"
        }
      ],
      "name": "UserAdded",
      "type": "event"
    },
    {
      "inputs": [
        {
          "internalType": "string",
          "name": "_projectName",
          "type": "string"
        },
        {
          "internalType": "string",
          "name": "_projectDescription",
          "type": "string"
        },
        {
          "internalType": "string",
          "name": "_areaOfProject",
          "type": "string"
        },
        {
          "internalType": "uint256",
          "name": "_deadline",
          "type": "uint256"
        },
        {
          "internalType": "uint256",
          "name": "_budgetAllocation",
          "type": "uint256"
        },
        {
          "internalType": "string",
          "name": "_resourcesRequired",
          "type": "string"
        },
        {
          "internalType": "string",
          "name": "_complianceAndResource",
          "type": "string"
        },
        {
          "internalType": "bool",
          "name": "_consent",
          "type": "bool"
        }
      ],
      "name": "addProject",
      "outputs": [],
      "stateMutability": "nonpayable",
      "type": "function"
    },
    {
      "inputs": [
        {
          "internalType": "string",
          "name": "_username",
          "type": "string"
        },
        {
          "internalType": "string",
          "name": "_department",
          "type": "string"
        },
        {
          "internalType": "string",
          "name": "_role",
          "type": "string"
        },
        {
          "internalType": "string",
          "name": "_location",
          "type": "string"
        }
      ],
      "name": "addUser",
      "outputs": [],
      "stateMutability": "nonpayable",
      "type": "function"
    },
    {
      "inputs": [
        {
          "internalType": "uint256",
          "name": "_projectId",
          "type": "uint256"
        }
      ],
      "name": "getProject",
      "outputs": [
        {
          "internalType": "uint256",
          "name": "",
          "type": "uint256"
        },
        {
          "internalType": "string",
          "name": "",
          "type": "string"
        },
        {
          "internalType": "string",
          "name": "",
          "type": "string"
        },
        {
          "internalType": "string",
          "name": "",
          "type": "string"
        },
        {
          "internalType": "uint256",
          "name": "",
          "type": "uint256"
        },
        {
          "internalType": "uint256",
          "name": "",
          "type": "uint256"
        },
        {
          "internalType": "string",
          "name": "",
          "type": "string"
        },
        {
          "internalType": "string",
          "name": "",
          "type": "string"
        },
        {
          "internalType": "bool",
          "name": "",
          "type": "bool"
        }
      ],
      "stateMutability": "view",
      "type": "function"
    },
    {
      "inputs": [
        {
          "internalType": "uint256",
          "name": "_userId",
          "type": "uint256"
        }
      ],
      "name": "getUser",
      "outputs": [
        {
          "internalType": "uint256",
          "name": "",
          "type": "uint256"
        },
        {
          "internalType": "string",
          "name": "",
          "type": "string"
        },
        {
          "internalType": "string",
          "name": "",
          "type": "string"
        },
        {
          "internalType": "string",
          "name": "",
          "type": "string"
        },
        {
          "internalType": "string",
          "name": "",
          "type": "string"
        }
      ],
      "stateMutability": "view",
      "type": "function"
    },
    {
      "inputs": [],
      "name": "projectCount",
      "outputs": [
        {
          "internalType": "uint256",
          "name": "",
          "type": "uint256"
        }
      ],
      "stateMutability": "view",
      "type": "function"
    },
    {
      "inputs": [
        {
          "internalType": "uint256",
          "name": "",
          "type": "uint256"
        }
      ],
      "name": "projects",
      "outputs": [
        {
          "internalType": "uint256",
          "name": "projectId",
          "type": "uint256"
        },
        {
          "internalType": "string",
          "name": "projectName",
          "type": "string"
        },
        {
          "internalType": "string",
          "name": "projectDescription",
          "type": "string"
        },
        {
          "internalType": "string",
          "name": "areaOfProject",
          "type": "string"
        },
        {
          "internalType": "uint256",
          "name": "deadline",
          "type": "uint256"
        },
        {
          "internalType": "uint256",
          "name": "budgetAllocation",
          "type": "uint256"
        },
        {
          "internalType": "string",
          "name": "resourcesRequired",
          "type": "string"
        },
        {
          "internalType": "string",
          "name": "complianceAndResource",
          "type": "string"
        },
        {
          "internalType": "bool",
          "name": "consent",
          "type": "bool"
        }
      ],
      "stateMutability": "view",
      "type": "function"
    },
    {
      "inputs": [],
      "name": "userCount",
      "outputs": [
        {
          "internalType": "uint256",
          "name": "",
          "type": "uint256"
        }
      ],
      "stateMutability": "view",
      "type": "function"
    },
    {
      "inputs": [
        {
          "internalType": "uint256",
          "name": "",
          "type": "uint256"
        }
      ],
      "name": "users",
      "outputs": [
        {
          "internalType": "uint256",
          "name": "userId",
          "type": "uint256"
        },
        {
          "internalType": "string",
          "name": "username",
          "type": "string"
        },
        {
          "internalType": "string",
          "name": "department",
          "type": "string"
        },
        {
          "internalType": "string",
          "name": "role",
          "type": "string"
        },
        {
          "internalType": "string",
          "name": "location",
          "type": "string"
        }
      ],
      "stateMutability": "view",
      "type": "function"
    }
  ],
  "bytecode": "0x608060405234801561001057600080fd5b5061195d806100206000396000f3fe608060405234801561001057600080fd5b50600436106100885760003560e01c806336fbad261161005b57806336fbad261461013357806340ea8c2014610151578063b0467deb1461016d578063f0f3f2c8146101a157610088565b806301cda3ac1461008d57806307973ccf146100a9578063107046bd146100c7578063365b98b2146100ff575b600080fd5b6100a760048036038101906100a29190611147565b6101d9565b005b6100b16102da565b6040516100be9190611237565b60405180910390f35b6100e160048036038101906100dc919061127e565b6102e0565b6040516100f699989796959493929190611345565b60405180910390f35b6101196004803603810190610114919061127e565b6105e3565b60405161012a9594939291906113f5565b60405180910390f35b61013b610839565b6040516101489190611237565b60405180910390f35b61016b60048036038101906101669190611490565b61083f565b005b6101876004803603810190610182919061127e565b6109b3565b6040516101989594939291906113f5565b60405180910390f35b6101bb60048036038101906101b6919061127e565b610c5b565b6040516101d099989796959493929190611345565b60405180910390f35b600260008154809291906101ec90611601565b91905055506040518060a00160405280600254815260200185815260200184815260200183815260200182815250600080600254815260200190815260200160002060008201518160000155602082015181600101908161024d9190611855565b5060408201518160020190816102639190611855565b5060608201518160030190816102799190611855565b50608082015181600401908161028f9190611855565b509050507f65389231ab6740a3523c340f54c9e2d674a6d4fe071d34f132f471fe681a066b600254858585856040516102cc9594939291906113f5565b60405180910390a150505050565b60025481565b600160205280600052604060002060009150905080600001549080600101805461030990611678565b80601f016020809104026020016040519081016040528092919081815260200182805461033590611678565b80156103825780601f1061035757610100808354040283529160200191610382565b820191906000526020600020905b81548152906001019060200180831161036557829003601f168201915b50505050509080600201805461039790611678565b80601f01602080910402602001604051908101604052809291908181526020018280546103c390611678565b80156104105780601f106103e557610100808354040283529160200191610410565b820191906000526020600020905b8154815290600101906020018083116103f357829003601f168201915b50505050509080600301805461042590611678565b80601f016020809104026020016040519081016040528092919081815260200182805461045190611678565b801561049e5780601f106104735761010080835404028352916020019161049e565b820191906000526020600020905b81548152906001019060200180831161048157829003601f168201915b5050505050908060040154908060050154908060060180546104bf90611678565b80601f01602080910402602001604051908101604052809291908181526020018280546104eb90611678565b80156105385780601f1061050d57610100808354040283529160200191610538565b820191906000526020600020905b81548152906001019060200180831161051b57829003601f168201915b50505050509080600701805461054d90611678565b80601f016020809104026020016040519081016040528092919081815260200182805461057990611678565b80156105c65780601f1061059b576101008083540402835291602001916105c6565b820191906000526020600020905b8154815290600101906020018083116105a957829003601f168201915b5050505050908060080160009054906101000a900460ff16905089565b600060205280600052604060002060009150905080600001549080600101805461060c90611678565b80601f016020809104026020016040519081016040528092919081815260200182805461063890611678565b80156106855780601f1061065a57610100808354040283529160200191610685565b820191906000526020600020905b81548152906001019060200180831161066857829003601f168201915b50505050509080600201805461069a90611678565b80601f01602080910402602001604051908101604052809291908181526020018280546106c690611678565b80156107135780601f106106e857610100808354040283529160200191610713565b820191906000526020600020905b8154815290600101906020018083116106f657829003601f168201915b50505050509080600301805461072890611678565b80601f016020809104026020016040519081016040528092919081815260200182805461075490611678565b80156107a15780601f10610776576101008083540402835291602001916107a1565b820191906000526020600020905b81548152906001019060200180831161078457829003601f168201915b5050505050908060040180546107b690611678565b80601f01602080910402602001604051908101604052809291908181526020018280546107e290611678565b801561082f5780601f106108045761010080835404028352916020019161082f565b820191906000526020600020905b81548152906001019060200180831161081257829003601f168201915b5050505050905085565b60035481565b6003600081548092919061085290611601565b919050555060405180610120016040528060035481526020018981526020018881526020018781526020018681526020018581526020018481526020018381526020018215158152506001600060035481526020019081526020016000206000820151816000015560208201518160010190816108cf9190611855565b5060408201518160020190816108e59190611855565b5060608201518160030190816108fb9190611855565b506080820151816004015560a0820151816005015560c08201518160060190816109259190611855565b5060e082015181600701908161093b9190611855565b506101008201518160080160006101000a81548160ff0219169083151502179055509050507fb5619ed5cbd402b204f79b45bc1b1b9cbf0b1ddaf7c00861f5dd9f867ea398a260035489898989898989896040516109a199989796959493929190611345565b60405180910390a15050505050505050565b600060608060608060008060008881526020019081526020016000206040518060a0016040529081600082015481526020016001820180546109f490611678565b80601f0160208091040260200160405190810160405280929190818152602001828054610a2090611678565b8015610a6d5780601f10610a4257610100808354040283529160200191610a6d565b820191906000526020600020905b815481529060010190602001808311610a5057829003601f168201915b50505050508152602001600282018054610a8690611678565b80601f0160208091040260200160405190810160405280929190818152602001828054610ab290611678565b8015610aff5780601f10610ad457610100808354040283529160200191610aff565b820191906000526020600020905b815481529060010190602001808311610ae257829003601f168201915b50505050508152602001600382018054610b1890611678565b80601f0160208091040260200160405190810160405280929190818152602001828054610b4490611678565b8015610b915780601f10610b6657610100808354040283529160200191610b91565b820191906000526020600020905b815481529060010190602001808311610b7457829003601f168201915b50505050508152602001600482018054610baa90611678565b80601f0160208091040260200160405190810160405280929190818152602001828054610bd690611678565b8015610c235780601f10610bf857610100808354040283529160200191610c23565b820191906000526020600020905b815481529060010190602001808311610c0657829003601f168201915b505050505081525050905080600001518160200151826040015183606001518460800151955095509550955095505091939590929450565b60006060806060600080606080600080600160008c81526020019081526020016000206040518061012001604052908160008201548152602001600182018054610ca490611678565b80601f0160208091040260200160405190810160405280929190818152602001828054610cd090611678565b8015610d1d5780601f10610cf257610100808354040283529160200191610d1d565b820191906000526020600020905b815481529060010190602001808311610d0057829003601f168201915b50505050508152602001600282018054610d3690611678565b80601f0160208091040260200160405190810160405280929190818152602001828054610d6290611678565b8015610daf5780601f10610d8457610100808354040283529160200191610daf565b820191906000526020600020905b815481529060010190602001808311610d9257829003601f168201915b50505050508152602001600382018054610dc890611678565b80601f0160208091040260200160405190810160405280929190818152602001828054610df490611678565b8015610e415780601f10610e1657610100808354040283529160200191610e41565b820191906000526020600020905b815481529060010190602001808311610e2457829003601f168201915b505050505081526020016004820154815260200160058201548152602001600682018054610e6e90611678565b80601f0160208091040260200160405190810160405280929190818152602001828054610e9a90611678565b8015610ee75780601f10610ebc57610100808354040283529160200191610ee7565b820191906000526020600020905b815481529060010190602001808311610eca57829003601f168201915b50505050508152602001600782018054610f0090611678565b80601f0160208091040260200160405190810160405280929190818152602001828054610f2c90611678565b8015610f795780601f10610f4e57610100808354040283529160200191610f79565b820191906000526020600020905b815481529060010190602001808311610f5c57829003601f168201915b505050505081526020016008820160009054906101000a900460ff1615151515815250509050806000015181602001518260400151836060015184608001518560a001518660c001518760e00151886101000151995099509950995099509950995099509950509193959799909294969850565b6000604051905090565b600080fd5b600080fd5b600080fd5b600080fd5b6000601f19601f8301169050919050565b7f4e487b7100000000000000000000000000000000000000000000000000000000600052604160045260246000fd5b6110548261100b565b810181811067ffffffffffffffff821117156110735761107261101c565b5b80604052505050565b6000611086610fed565b9050611092828261104b565b919050565b600067ffffffffffffffff8211156110b2576110b161101c565b5b6110bb8261100b565b9050602081019050919050565b82818337600083830152505050565b60006110ea6110e584611097565b61107c565b90508281526020810184848401111561110657611105611006565b5b6111118482856110c8565b509392505050565b600082601f83011261112e5761112d611001565b5b813561113e8482602086016110d7565b91505092915050565b6000806000806080858703121561116157611160610ff7565b5b600085013567ffffffffffffffff81111561117f5761117e610ffc565b5b61118b87828801611119565b945050602085013567ffffffffffffffff8111156111ac576111ab610ffc565b5b6111b887828801611119565b935050604085013567ffffffffffffffff8111156111d9576111d8610ffc565b5b6111e587828801611119565b925050606085013567ffffffffffffffff81111561120657611205610ffc565b5b61121287828801611119565b91505092959194509250565b6000819050919050565b6112318161121e565b82525050565b600060208201905061124c6000830184611228565b92915050565b61125b8161121e565b811461126657600080fd5b50565b60008135905061127881611252565b92915050565b60006020828403121561129457611293610ff7565b5b60006112a284828501611269565b91505092915050565b600081519050919050565b600082825260208201905092915050565b60005b838110156112e55780820151818401526020810190506112ca565b60008484015250505050565b60006112fc826112ab565b61130681856112b6565b93506113168185602086016112c7565b61131f8161100b565b840191505092915050565b60008115159050919050565b61133f8161132a565b82525050565b60006101208201905061135b600083018c611228565b818103602083015261136d818b6112f1565b90508181036040830152611381818a6112f1565b9050818103606083015261139581896112f1565b90506113a46080830188611228565b6113b160a0830187611228565b81810360c08301526113c381866112f1565b905081810360e08301526113d781856112f1565b90506113e7610100830184611336565b9a9950505050505050505050565b600060a08201905061140a6000830188611228565b818103602083015261141c81876112f1565b9050818103604083015261143081866112f1565b9050818103606083015261144481856112f1565b9050818103608083015261145881846112f1565b90509695505050505050565b61146d8161132a565b811461147857600080fd5b50565b60008135905061148a81611464565b92915050565b600080600080600080600080610100898b0312156114b1576114b0610ff7565b5b600089013567ffffffffffffffff8111156114cf576114ce610ffc565b5b6114db8b828c01611119565b985050602089013567ffffffffffffffff8111156114fc576114fb610ffc565b5b6115088b828c01611119565b975050604089013567ffffffffffffffff81111561152957611528610ffc565b5b6115358b828c01611119565b96505060606115468b828c01611269565b95505060806115578b828c01611269565b94505060a089013567ffffffffffffffff81111561157857611577610ffc565b5b6115848b828c01611119565b93505060c089013567ffffffffffffffff8111156115a5576115a4610ffc565b5b6115b18b828c01611119565b92505060e06115c28b828c0161147b565b9150509295985092959890939650565b7f4e487b7100000000000000000000000000000000000000000000000000000000600052601160045260246000fd5b600061160c8261121e565b91507fffffffffffffffffffffffffffffffffffffffffffffffffffffffffffffffff820361163e5761163d6115d2565b5b600182019050919050565b7f4e487b7100000000000000000000000000000000000000000000000000000000600052602260045260246000fd5b6000600282049050600182168061169057607f821691505b6020821081036116a3576116a2611649565b5b50919050565b60008190508160005260206000209050919050565b60006020601f8301049050919050565b600082821b905092915050565b60006008830261170b7fffffffffffffffffffffffffffffffffffffffffffffffffffffffffffffffff826116ce565b61171586836116ce565b95508019841693508086168417925050509392505050565b6000819050919050565b600061175261174d6117488461121e565b61172d565b61121e565b9050919050565b6000819050919050565b61176c83611737565b61178061177882611759565b8484546116db565b825550505050565b600090565b611795611788565b6117a0818484611763565b505050565b5b818110156117c4576117b960008261178d565b6001810190506117a6565b5050565b601f821115611809576117da816116a9565b6117e3846116be565b810160208510156117f2578190505b6118066117fe856116be565b8301826117a5565b50505b505050565b600082821c905092915050565b600061182c6000198460080261180e565b1980831691505092915050565b6000611845838361181b565b9150826002028217905092915050565b61185e826112ab565b67ffffffffffffffff8111156118775761187661101c565b5b6118818254611678565b61188c8282856117c8565b600060209050601f8311600181146118bf57600084156118ad578287015190505b6118b78582611839565b86555061191f565b601f1984166118cd866116a9565b60005b828110156118f5578489015182556001820191506020850194506020810190506118d0565b86831015611912578489015161190e601f89168261181b565b8355505b6001600288020188555050505b50505050505056fea2646970667358221220f32368cacd4912b611ced100226b0fa8ababb1ba1303e184b95a1fc5045c75fc64736f6c63430008180033",
  "linkReferences": {},
  "deployedLinkReferences": {}
}